:100000000C949C000C94B9000C94B9000C94B900A9
:100010000C94B9000C94B9000C94B9000C94B9007C
:100020000C94B9000C94B9000C94B9000C94B9006C
:100030000C94B9000C94B9000C94B9000C94B9005C
:100040000C94B9000C94B9000C94B9000C94B9004C
:100050000C94B9000C94B9000C94B9000C94B9003C
:100060000C940F020C94B9004B02240224022402C7
:1000700024022402240224024B0224022402240229
:10008000240224022402240255022402240224020F
:100090002402240224022402240224022402240230
:1000A00024022402240224025502240224022402EF
:1000B0002402240224022402240224022402240210
:1000C00024022402240224026C02240224022402B8
:1000D00024022402240224027002240224022402A4
:1000E00024022402240224022402240224022402E0
:1000F00024022402240224027E0224022402240276
:1001000024022402240224023C02084AD73B3BCEAC
:10011000016E84BCBFFDC12F3D6C74319ABD568306
:100120003DDA3D00C77F11BED9E4BB4C3E916BAABE
:10013000AABE000000803F0011241FBECFEFD8E010
:10014000DEBFCDBF11E0A0E0B1E0E2EEFAE102C017
:1001500005900D92A830B107D9F721E0A8E0B1E0F1
:1001600001C01D92A031B207E1F70E94C8020C94B1
:100170006F0D0C9400009093C5008093C40088E13B
:100180008093C10086E08093C20008959091C000E2
:1001900095FFFCCF8093C60008958091C00087FF33
:1001A000FCCF8091C6000895FC012081222351F0EC
:1001B00031968091C00085FFFCCF2093C60021912D
:1001C0002111F7CF08958091C00087FFFCCF809167
:1001D000C6009091C00095FFFCCF8093C60090911F
:1001E000C00097FFFCCF2091C6009091C00095FF02
:1001F000FCCF2093C6009091C00095FFFCCF9AE001
:100200009093C6009FEB980F9630A8F09FE9980F47
:100210009630B8F487558295807F9FEB920F963089
:1002200070F09FE9920F963090F020532A3008F03A
:1002300020E0820F089587538295807FEECF275369
:10024000F8CF80538A3028F48295807FE6CF2755F7
:10025000F0CF80E0E2CF9FEB980F963050F09FE90F
:10026000980F963020F080538A3028F408958755EF
:1002700008958753089580E008958CE284B92A9AFE
:100280008CE58CBD81E08DBD08952A988EBD0DB49E
:1002900007FEFDCF6EBD0DB407FEFDCF2A9A08956F
:1002A0002A9880688EBD0DB407FEFDCF1EBC0DB42C
:1002B00007FEFDCF2A9A8EB508958FE59AEE019735
:1002C000F1F700C000000895CF93DF9300D0CDB7C1
:1002D000DEB789836A8342E0BE016F5F7F4F84EDA2
:1002E0000E949D020E9499028111FCCF0F900F90F5
:1002F000DF91CF9108950F931F93CF93DF931F92B8
:10030000CDB7DEB78B01898341E0BE016F5F7F4FC0
:1003100084ED0E949D0241E0B80185ED0E94AE028D
:100320000E9499028111FCCF0F90DF91CF911F9114
:100330000F91089569E071E08EE10E947B01809148
:1003400009018170089568E071E08EE10E947B01EF
:10035000809108018695817008950F931F93CF9324
:10036000DF931F92CDB7DEB7182F062FBE016F5F48
:100370007F4F0E947B016981602B812F0E94640165
:100380000F90DF91CF911F910F91089568E388E15D
:100390000E94AD016CE480E10E94AD0161E08DE05E
:1003A0000C94AD0168E389E10E94AD0168E481E14C
:1003B0000E94AD0162E08EE00C94AD010F931F939B
:1003C000CF93DF931F92CDB7DEB7182F062FBE0154
:1003D0006F5F7F4F0E947B01602F6095898168234A
:1003E000812F0E9464010F90DF91CF911F910F9197
:1003F00008951F93CF93DF931F92CDB7DEB7162FCB
:10040000BE016F5F7F4F0E947B019981912381E044
:1004100009F480E00F90DF91CF911F9108951F9212
:100420000F920FB60F9211242F933F938F939F93A8
:10043000AF93BF93EF93FF938091B90090E0FC01DD
:100440003897E135F105A0F08091B90080930B0158
:1004500084E08093BC00FF91EF91BF91AF919F9199
:100460008F913F912F910F900FBE0F901F90189575
:10047000EC5CFF4F0C94D80780910A01E0910C01CD
:10048000F0910D01E80FF11D8091BB00808384E99C
:100490008093BC00E0CF80910E018093BB0010924E
:1004A0000A0185E88093BC00D6CF80910A01909123
:1004B0000F01891760F7E0910C01F0910D0191E0B7
:1004C000980F90930A01E80FF11D80818093BB0083
:1004D00085E88093BC00BFCF85EA8093BC00BBCF8A
:1004E00020910A0180910F0130E090E001972817D8
:1004F0003907DCF485EC8093BC00ADCFE0910C01B2
:10050000F0910D0180910A0121E0280F20930A014A
:10051000E80FF11D8091BB00808380910F0130E0D6
:1005200090E00197281739072CF385E88093BC00E9
:1005300092CF8091BC00817008959091BC0090FD95
:10054000FCCF8E7F80930E0170930D0160930C01A0
:1005500040930F0185EA8093BC0008959091BC0000
:1005600090FDFCCF816080930E0170930D0160932C
:100570000C0140930F0185EA8093BC0008958FEF32
:100580008093BB001092B9008CE08093B80008956E
:10059000CF93DF93CDB7DEB7CE54D7400FB6F894E4
:1005A000DEBF0FBECDBF89E190E00E94BB000E947C
:1005B000BF020E945D010E94C6010E94D201789490
:1005C000412C512C9E01295D384FCD5BD84F39838A
:1005D0002883C354D740CE01875F984FCD5CD84F56
:1005E00099838883C353D740DE01AB55B94FC95BAC
:1005F000D84FB983A883C754D740FE01EF5BF94FAA
:10060000CF5BD84FF983E883C154D7402A54314097
:10061000CB5BD84F39832883C554D740805991404C
:100620007C01A059B1406D01E059F140C75BD84F42
:10063000F983E883C954D740CD5BD84F688079806F
:10064000C354D740CD5CD84FF881C353D740C15C69
:10065000D84FF883CF53D740CC5CD84F2881C453B0
:10066000D740C05CD84F2883C054D7400E94A30114
:100670008823E1F3CD5BD84F68817981C354D7409B
:1006800088E20E947B018FE99FE00197F1F700C0AB
:100690000000D3018C911F928F93A0E0B1E0BF9333
:1006A000AF93CC5CD84FF881C453D740FF93CD5C57
:1006B000D84F2881C353D7402F930E949E0ACD5C08
:1006C000D84F88819981C353D7400E94D4009201AA
:1006D00036952795ABE7B4E10E94DE078C011695AD
:1006E000079532E3309FC001319F900D11248201A4
:1006F000081B190BD3018C9190E0F801EE0FFF1F3E
:10070000C95BD84F28813981C754D740E20FF31F06
:1007100091838083B30189E20E947B018FE99FE08E
:100720000197F1F700C00000D3018C911F928F93C5
:10073000A0E0B1E0BF93AF93C15CD84FF881CF5335
:10074000D740CD5CD84FF883C353D740C05CD84F57
:100750002881C054D740CC5CD84F2883C453D7409D
:100760002F93FF930E949E0AC15CD84F8881CF537C
:10077000D740C05CD84F9881C054D7400E94D40065
:10078000F801EE0FFF1F85EA96E08C0F9D1FE80F22
:10079000F91F80819181D3012C91922B91838083C9
:1007A000B3018AE20E947B01EFE9FFE03197F1F7A4
:1007B00000C00000D3018C9190E0F801EE0FFF1F04
:1007C000CF5BD84F28813981C154D740E20FF31F46
:1007D00091838083B3018BE20E947B018FE99FE0CC
:1007E0000197F1F700C00000F801EE0FFF1FA1E430
:1007F000B6E0AC0FBD1FEA0FFB1F80819181D301D2
:100800002C91922B91838083B3018CE20E947B0117
:10081000EFE9FFE03197F1F700C00000D3018C91C0
:1008200090E0F801EE0FFF1FCB5BD84F2881398194
:10083000C554D740E20FF31F91838083B3018DE24B
:100840000E947B018FE99FE00197F1F700C0000053
:10085000F801EE0FFF1FADEDB5E0AC0FBD1FEA0FC5
:10086000FB1F80819181D3012C91922B91838083F6
:10087000B30182E20E947B01EFE9FFE03197F1F7DB
:1008800000C00000D3018C9190E0F801EE0FFF1F33
:10089000EE0DFF1D91838083B30183E20E947B01F3
:1008A000EFE9FFE03197F1F700C00000F801EE0F2B
:1008B000FF1F29E735E02C0F3D1FE20FF31F80815A
:1008C0009181D3012C91922B91838083B30184E297
:1008D0000E947B01EFE9FFE03197F1F700C00000D3
:1008E000D3018C9190E0F801EE0FFF1FEC0DFD1D80
:1008F00091838083B30185E20E947B01EFE9FFE0F1
:100900003197F1F700C00000F801EE0FFF1F25E15D
:1009100035E02C0F3D1FE20FF31F80819181D30141
:100920002C91922B91838083B30186E20E947B01FC
:10093000EFE9FFE03197F1F700C00000D3018C919F
:1009400090E0F801EE0FFF1FC75BD84F2881398177
:10095000C954D740E20FF31F91838083B30187E22C
:100960000E947B018FE99FE00197F1F700C0000032
:10097000DE01AF54BB4FC75BD84FB983A883C954BE
:10098000D7401801220C331CFD01E20DF31DC75C9A
:10099000D84FF983E883C953D74080819181CD5BDB
:1009A000D84F79826882C354D740D3012C91922BBF
:1009B000918380837201B1E0EB1AF10897013695BB
:1009C0002795ABE7B4E10E94DE0796958795E2E3B1
:1009D000E89F9001E99F300D1124E21AF30A9E016D
:1009E0002B55394FC95BD84F39832883C754D7401B
:1009F000EE0CFF1CF901EE0DFF1D60817181690194
:100A0000C20CD31CD6018D919C91681B790B660F8B
:100A1000771F660F771F660F771F882777FD8095F2
:100A2000982F0E94290920E030E040E85CE30E9412
:100A3000E1090E94F608EDE4F4E0EC0FFD1FE20D81
:100A4000F31D71836083FE01EF5BF94FCF5BD84FDD
:100A5000F983E883C154D740E1E4F6E0EC0FFD1FD1
:100A6000EE0DFF1D60817181F1E4AF2EF6E0BF2E27
:100A7000AC0EBD1EA20CB31CD5018D919C91681BC0
:100A8000790B660F771F660F771F660F771F882712
:100A900077FD8095982F0E94290920E030E040E8FA
:100AA0005CE30E94E1090E94F608E9EEF3E0EC0F36
:100AB000FD1FE20DF31D71836083FE01E352FA4FC7
:100AC000CB5BD84FF983E883C554D740EDEDF5E013
:100AD000EC0FFD1FEE0DFF1D60817181BDED8B2EB2
:100AE000B5E09B2E8C0E9D1E820C931CD4018D9123
:100AF0009C91681B790B660F771F660F771F660F37
:100B0000771F882777FD8095982F0E94290920E07C
:100B100030E040E85CE30E94E1090E94F608E5E865
:100B2000F3E0EC0FFD1FE20DF31D71836083F6010E
:100B300060817181660F771F660F771F660F771FC1
:100B4000882777FD8095982F0E94290920E030E0C2
:100B500040E058E30E94E1097801EE0CFF1CEE0C26
:100B6000FF1C21E931E02C0F3D1F2E0D3F1DCB5CFA
:100B7000D84F39832883C553D740D9016D937D93CE
:100B80008D939C931397F50160817181660F771F98
:100B9000660F771F660F771F882777FD8095982F40
:100BA0000E94290920E030E040E058E30E94E1097A
:100BB00029EC30E02C0F3D1F2E0D3F1DC55CD84F9A
:100BC00039832883CB53D740D9016D937D938D937F
:100BD0009C931397F40160817181660F771F660FF4
:100BE000771F660F771F882777FD8095982F0E94C3
:100BF000290920E030E040E058E30E94E10921E0CB
:100C000030E02C0F3D1F2E0D3F1DC35CD84F3983A4
:100C10002883CD53D740D9016D937D938D939C93B9
:100C20001397CB5CD84FE881F981C553D7408080BA
:100C30009180A280B380C55CD84FA881B981CB5385
:100C4000D740CD90DD90ED90FC90F90160817181ED
:100C5000828193819B01AC010E94E109C55BD84F61
:100C6000688379838A839B83CB54D740A7019601FD
:100C7000C701B6010E94E1099B01AC01C55BD84FD9
:100C8000688179818A819B81CB54D7400E94020878
:100C90000E94480A9B01AC01C501B4010E948E0864
:100CA0000E94660820E030E044E353E40E94E1093A
:100CB0002BED3FE049E450E40E948E080E94F608C4
:100CC000C75DD84F79836883C952D740C55CD84F78
:100CD000A881B981CB53D7408D909D90AD90BC90A9
:100CE000CB5CD84FE881F981C553D74060817181D1
:100CF00082819381C35CD84FA881B981CD53D740FD
:100D0000CD90DD90ED90FC909B01AC010E94E1093B
:100D1000CB5CD84F688379838A839B83C553D74044
:100D2000A7019601C701B6010E94E1099B01AC0130
:100D3000CB5CD84F688179818A819B81C553D7402C
:100D40000E9402080E94480A9B01AC01C501B4013F
:100D50000E948E080E94660820E030E044E353E4DD
:100D60000E94E1092BED3FE049E450E40E948E0827
:100D70000E94F608C55DD84F79836883CB52D7406F
:100D8000FE01E758FA4F7F01E20DF31D608171818A
:100D9000882777FD8095982F0E94290920E030E070
:100DA00040E058E30E94E10920E030E04AE754E4E3
:100DB0000E94E1090E94F608E1E2F3E0EC0FFD1F5A
:100DC000E20DF31D718360839E012B5E3A4F690132
:100DD000F901E20DF31D60817181882777FD80950F
:100DE000982F0E94290920E030E040E058E30E945B
:100DF000E10920E030E04AE754E40E94E1090E9462
:100E0000F608EDEBF2E0EC0FFD1FE20DF31D718330
:100E10006083C75CD84FA881B981C953D7406D9111
:100E20007C91882777FD8095982F0E94290920E0E2
:100E300030E040E058E30E94E10920E030E04AE77A
:100E400054E40E94E1090E94F608E9E5F2E0EC0FA3
:100E5000FD1FE20DF31D71836083CF5CD84F1982B3
:100E60001882C153D740C15DD84F19821882CF5222
:100E7000D740C35DD84F19821882CD52D7400FB6E4
:100E8000F894DEBF0FBECDBF20E030E0C801821B6A
:100E9000930B880F991FEDE4F4E0EC0FFD1FE80FB2
:100EA000F91F40815181CF5CD84F68817981C1534E
:100EB000D740460F571FCF5CD84F59834883C15343
:100EC000D740E9EEF3E0EC0FFD1FE80FF91F40817A
:100ED0005181C15DD84F68817981CF52D740460F8B
:100EE000571FC15DD84F59834883CF52D740E5E89B
:100EF000F3E0EC0FFD1FE80FF91F80819181C35DC6
:100F0000D84F48815981CD52D740840F951FC35D7A
:100F1000D84F99838883CD52D7402F5F3F4F2233DC
:100F2000310509F0B3CFCF5CD84F88819981C15387
:100F3000D740B9010E94C407CF5CD84F798368833A
:100F4000C153D740C15DD84F88819981CF52D740D6
:100F5000B9010E94C407C15DD84F79836883CF521D
:100F6000D740C35DD84F88819981CD52D740B90110
:100F70000E94C407C35DD84F79836883CD52D740A0
:100F8000FFEF4F1A5F0A72CB97FB072E16F40094FF
:100F900007D077FD09D00E94ED0707FC05D03EF48D
:100FA000909581959F4F0895709561957F4F089515
:100FB000EE0FFF1F0590F491E02D0994A29FB00160
:100FC000B39FC001A39F700D811D1124911DB29F7D
:100FD000700D811D1124911D0895AA1BBB1B51E1A9
:100FE00007C0AA1FBB1FA617B70710F0A61BB70B99
:100FF000881F991F5A95A9F780959095BC01CD013E
:1010000008955058BB27AA270ED09AC18BD130F033
:1010100090D120F031F49F3F11F41EF45BC10EF427
:10102000E095E7FB51C1E92F9CD180F3BA17620725
:1010300073078407950718F071F49EF5B4C10EF498
:10104000E0950B2EBA2FA02D0B01B90190010C01D8
:10105000CA01A0011124FF27591B99F0593F50F4F0
:10106000503E68F11A16F040A22F232F342F442748
:10107000585FF3CF469537952795A795F040539540
:10108000C9F77EF41F16BA0B620B730B840BBAF010
:101090009150A1F0FF0FBB1F661F771F881FC2F77B
:1010A0000EC0BA0F621F731F841F48F4879577958F
:1010B0006795B795F7959E3F08F0B3CF9395880F46
:1010C00008F09927EE0F979587950895DF93DD2710
:1010D000B92FBF7740E85FE31616170648075B078E
:1010E00010F4D92F67D19F938F937F936F930ED274
:1010F000EAE0F1E0F2D024D12F913F914F915F913E
:101100006CD1DD2349F09058A2EA2AED3FE049EC8A
:101110005FE3D0785D2787DFDF9112C10CD010C16B
:1011200008D140F0FFD030F021F45F3F19F0CCC07F
:1011300051113AC1CFC015D198F39923C9F3552362
:10114000B1F3951B550BBB27AA27621773078407BA
:1011500038F09F5F5F4F220F331F441FAA1FA9F370
:1011600033D00E2E3AF0E0E830D091505040E69562
:10117000001CCAF729D0FE2F27D0660F771F881FC3
:10118000BB1F261737074807AB07B0E809F0BB0BB2
:10119000802DBF01FF2793585F4F2AF09E3F5105D6
:1011A00068F092C001C15F3FECF3983EDCF3869596
:1011B00077956795B795F7959F5FC9F7880F911D4C
:1011C0009695879597F90895E1E0660F771F881F38
:1011D000BB1F621773078407BA0720F0621B730BEB
:1011E000840BBA0BEE1F88F7E095089504D068943D
:1011F000B111DAC00895BDD088F09F5790F0B92F93
:101200009927B751A0F0D1F0660F771F881F991F5B
:101210001AF0BA95C9F712C0B13081F0C4D0B1E06C
:101220000895C1C0672F782F8827B85F39F0B93F7C
:10123000CCF3869577956795B395D9F73EF490955D
:101240008095709561957F4F8F4F9F4F0895E894DB
:1012500009C097FB3EF490958095709561957F4FFE
:101260008F4F9F4F9923A9F0F92F96E9BB279395AC
:10127000F695879577956795B795F111F8CFFAF4BC
:10128000BB0F11F460FF1BC06F5F7F4F8F4F9F4FED
:1012900016C0882311F096E911C0772321F09EE84B
:1012A000872F762F05C0662371F096E8862F70E0B1
:1012B00060E02AF09A95660F771F881FDAF7880F8B
:1012C0009695879597F9089597F99F6780E870E05C
:1012D00060E008959FEF80EC0895DF93CF931F9314
:1012E0000F93FF92EF92DF927B018C01689405C00F
:1012F000DA2EEF0172D0FE01E894A5912591359187
:1013000045915591AEF3EF018EDEFE019701A801E4
:10131000DA9479F7DF90EF90FF900F911F91CF91C2
:10132000DF91089500240A94161617061806090678
:10133000089500240A94121613061406050608954B
:10134000092E0394000C11F4882352F0BB0F40F4D3
:10135000BF2B11F460FF04C06F5F7F4F8F4F9F4F13
:10136000089557FD9058440F551F59F05F3F71F095
:101370004795880F97FB991F61F09F3F79F08795FC
:101380000895121613061406551FF2CF4695F1DF85
:1013900008C0161617061806991FF1CF8695710515
:1013A000610508940895E894BB2766277727CB0149
:1013B00097F908959B01AC0160E070E080E89FE33D
:1013C000ADCE0BD0BDCFAEDF28F0B3DF18F0952344
:1013D00009F07ACF7FCF1124E7CFC3DFA0F3959F29
:1013E000D1F3950F50E0551F629FF001729FBB270C
:1013F000F00DB11D639FAA27F00DB11DAA1F649FB8
:101400006627B00DA11D661F829F2227B00DA11D6A
:10141000621F739FB00DA11D621F839FA00D611DF0
:10142000221F749F3327A00D611D231F849F600D11
:10143000211D822F762F6A2F11249F5750408AF04A
:10144000E1F088234AF0EE0FFF1FBB1F661F771FD6
:10145000881F91505040A9F79E3F510570F034CF3E
:10146000A3CF5F3FECF3983EDCF3869577956795C5
:10147000B795F795E7959F5FC1F7FE2B880F911DF4
:101480009695879597F9089511F40EF423CF41C0EE
:1014900070DFD0F39923D9F3CEF39F57550B87FF15
:1014A00046D00024A0E640EA9001805856959795D2
:1014B00028F4805C660F771F881F20F026173707F7
:1014C000480730F4621B730B840B202931294A2B07
:1014D000A69517940794202531254A2758F7660FBB
:1014E000771F881F20F026173707480730F4620B54
:1014F000730B840B200D311D411DA09581F7B9019F
:10150000842F9158880F9695879508959B01AC017B
:1015100058CF9F3F31F0915020F48795779567958C
:10152000B795880F911D9695879597F908959150D5
:101530005040660F771F881FD2F70895AEE0B0E0E5
:10154000E4EAFAE00C94460D0D891E8986E08C834E
:101550001A8309838FEF9FE79E838D83AE01475ED9
:101560005F4F6F89788DCE0101960E94C00AEF818E
:10157000F885E00FF11F10822E96E4E00C94620DC6
:10158000ACE0B0E0E6ECFAE00C94380D7C016B01C5
:101590008A01FC0117821682838181FFBDC1CE01C1
:1015A00001964C01F7019381F60193FD859193FF1C
:1015B00081916F01882309F4ABC1853239F493FD21
:1015C000859193FF81916F01853229F4B70190E0F5
:1015D0000E94A80CE7CF512C312C20E02032A0F43F
:1015E0008B3269F030F4803259F0833269F4206133
:1015F0002CC08D3239F0803339F4216026C022604E
:10160000246023C0286021C027FD27C030ED380F9B
:101610003A3078F426FF06C0FAE05F9E300D1124C0
:10162000532E13C08AE0389E300D1124332E2062D1
:101630000CC08E3221F426FD6BC1206406C08C36AE
:1016400011F4206802C0883641F4F60193FD8591BB
:1016500093FF81916F018111C1CF982F9F7D955488
:10166000933028F40C5F1F4FFFE3F9830DC08336DE
:1016700031F0833771F0833509F05BC022C0F80187
:10168000808189830E5F1F4F44244394512C540161
:1016900015C03801F2E06F0E711CF801A080B18016
:1016A00026FF03C0652D70E002C06FEF7FEFC5011C
:1016B0002C870E949D0C2C0183012C852F77222ED4
:1016C00017C03801F2E06F0E711CF801A080B180E4
:1016D00026FF03C0652D70E002C06FEF7FEFC501EC
:1016E0002C870E94920C2C012C852068222E8301CD
:1016F00023FC1BC0832D90E048165906B0F4B701B7
:1017000080E290E00E94A80C3A94F4CFF50127FC07
:10171000859127FE81915F01B70190E00E94A80C9E
:1017200031103A94F1E04F1A51084114510471F705
:10173000E5C0843611F0893639F5F80127FF07C076
:1017400060817181828193810C5F1F4F08C060812D
:101750007181882777FD8095982F0E5F1F4F2F7618
:10176000B22E97FF09C090958095709561957F4F37
:101770008F4F9F4F2068B22E2AE030E0A4010E94D4
:10178000DA0CA82EA81844C0853729F42F7EB22E73
:101790002AE030E025C0F22FF97FBF2E8F36C1F04E
:1017A00018F4883579F0B4C0803719F0883721F003
:1017B000AFC02F2F2061B22EB4FE0DC08B2D8460E0
:1017C000B82E09C024FF0AC09F2F9660B92E06C00C
:1017D00028E030E005C020E130E002C020E132E046
:1017E000F801B7FE07C060817181828193810C5F2F
:1017F0001F4F06C06081718180E090E00E5F1F4F37
:10180000A4010E94DA0CA82EA818FB2DFF77BF2E8A
:10181000B6FE0BC02B2D2E7FA51450F4B4FE0AC0CB
:10182000B2FC08C02B2D2E7E05C07A2C2B2D03C0B8
:101830007A2C01C0752C24FF0DC0FE01EA0DF11DAC
:101840008081803311F4297E09C022FF06C0739481
:10185000739404C0822F867809F0739423FD13C01B
:1018600020FF06C05A2C731418F4530C5718732C0D
:10187000731468F4B70180E290E02C870E94A80CF2
:1018800073942C85F5CF731410F4371801C0312CE4
:1018900024FF12C0B70180E390E02C870E94A80CBF
:1018A0002C8522FF17C021FF03C088E590E002C00D
:1018B00088E790E0B7010CC0822F867859F021FDAF
:1018C00002C080E201C08BE227FD8DE2B70190E00B
:1018D0000E94A80CA51438F4B70180E390E00E94A0
:1018E000A80C5A94F7CFAA94F401EA0DF11D808157
:1018F000B70190E00E94A80CA110F5CF332009F4A5
:1019000051CEB70180E290E00E94A80C3A94F6CF45
:10191000F7018681978102C08FEF9FEF2C96E2E15D
:101920000C94540DFC010590615070400110D8F7E3
:10193000809590958E0F9F1F0895FC016150704017
:1019400001900110D8F7809590958E0F9F1F0895F4
:101950000F931F93CF93DF93182F092FEB018B81E8
:1019600081FD03C08FEF9FEF20C082FF10C04E812A
:101970005F812C813D81421753077CF4E881F98116
:101980009F012F5F3F4F39832883108306C0E8856E
:10199000F985812F0995892B29F72E813F812F5FAA
:1019A0003F4F3F832E83812F902FDF91CF911F9147
:1019B0000F910895FA01AA27283051F1203181F1C1
:1019C000E8946F936E7F6E5F7F4F8F4F9F4FAF4F47
:1019D000B1E03ED0B4E03CD0670F781F891F9A1F5A
:1019E000A11D680F791F8A1F911DA11D6A0F711D0E
:1019F000811D911DA11D20D009F468943F912AE01A
:101A0000269F11243019305D3193DEF6CF01089501
:101A1000462F4770405D4193B3E00FD0C9F7F6CF32
:101A2000462F4F70405D4A3318F0495D31FD4052FA
:101A3000419302D0A9F7EACFB4E0A6959795879590
:101A400077956795BA95C9F700976105710508956F
:101A50009B01AC010A2E069457954795379527951B
:101A6000BA95C9F7620F731F841F951FA01D0895B3
:101A70002F923F924F925F926F927F928F929F929E
:101A8000AF92BF92CF92DF92EF92FF920F931F938C
:101A9000CF93DF93CDB7DEB7CA1BDB0B0FB6F8943D
:101AA000DEBF0FBECDBF09942A88398848885F847D
:101AB0006E847D848C849B84AA84B984C884DF80EE
:101AC000EE80FD800C811B81AA81B981CE0FD11DD2
:101AD0000FB6F894DEBF0FBECDBFED010895F894A8
:021AE000FFCF36
:081AE200253032580D0A000006
:00000001FF
