:100000000C9485000C94A2000C94A2000C94A20005
:100010000C94A2000C94A2000C94A2000C94A200D8
:100020000C94A2000C94A2000C94A2000C94A200C8
:100030000C94A2000C94A2000C94A2000C94A200B8
:100040000C94A2000C94A2000C94A2000C94A200A8
:100050000C94A2000C94A2000C94A2000C94A20098
:100060000C9498010C94A200D401AD01AD01AD0136
:10007000AD01AD01AD01AD01D401AD01AD01AD01E9
:10008000AD01AD01AD01AD01DE01AD01AD01AD01CF
:10009000AD01AD01AD01AD01AD01AD01AD01AD01F0
:1000A000AD01AD01AD01AD01DE01AD01AD01AD01AF
:1000B000AD01AD01AD01AD01AD01AD01AD01AD01D0
:1000C000AD01AD01AD01AD01F501AD01AD01AD0178
:1000D000AD01AD01AD01AD01F901AD01AD01AD0164
:1000E000AD01AD01AD01AD01AD01AD01AD01AD01A0
:1000F000AD01AD01AD01AD010702AD01AD01AD0135
:10010000AD01AD01AD01AD01C50111241FBECFEFA1
:10011000D8E0DEBFCDBF11E0A0E0B1E0E4ECFAE052
:1001200002C005900D92A830B107D9F721E0A8E0F0
:10013000B1E001C01D92A231B207E1F70E94510265
:100140000C9460050C9400009093C5008093C4004B
:1001500088E18093C10086E08093C2000895909169
:10016000C00095FFFCCF8093C60008958091C00029
:1001700087FFFCCF8091C6000895FC0120812223D7
:1001800051F031968091C00085FFFCCF2093C600CE
:1001900021912111F7CF08958091C00087FFFCCFF6
:1001A0008091C6009091C00095FFFCCF8093C6005F
:1001B0009091C00097FFFCCF2091C6009091C000A5
:1001C00095FFFCCF2093C6009091C00095FFFCCF17
:1001D0009AE09093C6009FEB980F9630A8F09FE9A5
:1001E000980F9630B8F487558295807F9FEB920FD9
:1001F000963070F09FE9920F963090F020532A309D
:1002000008F020E0820F089587538295807FEECF1B
:100210002753F8CF80538A3028F48295807FE6CF29
:100220002755F0CF80E0E2CF9FEB980F963050F04B
:100230009FE9980F963020F080538A3028F4089573
:10024000875508958753089580E008958CE284B916
:100250002A9A8CE58CBD81E08DBD08952A988EBDCB
:100260000DB407FEFDCF6EBD0DB407FEFDCF2A9A7B
:1002700008952A9880688EBD0DB407FEFDCF1EBC80
:100280000DB407FEFDCF2A9A8EB508958FE59AEE3C
:100290000197F1F700C000000895CF93DF9300D0DD
:1002A000CDB7DEB78A83698341E0BE016E5F7F4FC1
:1002B00084ED0E94260241E0BE016F5F7F4F84ED16
:1002C0000E9426020F900F90DF91CF9108950F9317
:1002D0001F93CF93DF931F92CDB7DEB78B01898336
:1002E00041E0BE016F5F7F4F84ED0E94260241E036
:1002F000B80185ED0E9437020F90DF91CF911F91D9
:100300000F9108950895089569E071E08EE10E94CB
:100310006701809109018170089568E071E08EE1C4
:100320000E94670180910801869581700895089563
:100330001F920F920FB60F9211242F933F938F931A
:100340009F93AF93BF93EF93FF938091B90090E099
:10035000FC013897E135F105A0F08091B900809358
:100360000D0184E08093BC00FF91EF91BF91AF91AC
:100370009F918F913F912F910F900FBE0F901F90E3
:100380001895EC5CFF4F0C94890280910A01E09172
:100390000E01F0910F01E80FF11D8091BB008083E9
:1003A00084E98093BC00E0CF809110018093BB0072
:1003B00010920A0185E88093BC00D6CF80910A0193
:1003C00090911101891760F7E0910E01F0910F01F2
:1003D00091E0980F90930A01E80FF11D80818093BE
:1003E000BB0085E88093BC00BFCF85EA8093BC004A
:1003F000BBCF20910A018091110130E090E001977C
:1004000028173907DCF485EC8093BC00ADCFE09170
:100410000E01F0910F0180910A0121E0280F209335
:100420000A01E80FF11D8091BB00808380911101CA
:1004300030E090E00197281739072CF385E8809386
:10044000BC0092CF8091BC00817008959091BC0057
:1004500090FDFCCF8E7F8093100170930F0160930D
:100460000E014093110185EA8093BC00089590919C
:10047000BC0090FDFCCF81608093100170930F0150
:1004800060930E014093110185EA8093BC000895AA
:100490008FEF8093BB001092B9008CE08093B8007E
:1004A0000895CF93DF9300D000D000D0CDB7DEB752
:1004B00089E190E00E94A4000E94480278948FE0B5
:1004C00080930B018E010F5F1F4F80E0E82E81E0CB
:1004D000F82E41E06BE071E084ED0E94260241E0DD
:1004E0006CE071E085ED0E94370280910C011F9253
:1004F0008F93FF92EF921F930F930E948F02C80178
:100500000E94BD000F900F900F900F900F900F90D2
:10051000E0CFEE0FFF1F0590F491E02D0994AEE0BF
:10052000B0E0E5E9F2E00C9437050D891E8986E01C
:100530008C831A8309838FEF9FE79E838D83AE019F
:10054000475E5F4F6F89788DCE0101960E94B102A0
:10055000EF81F885E00FF11F10822E96E4E00C94F5
:100560005305ACE0B0E0E7EBF2E00C9429057C0128
:100570006B018A01FC0117821682838181FFBDC154
:10058000CE0101964C01F7019381F60193FD85910F
:1005900093FF81916F01882309F4ABC1853239F44F
:1005A00093FD859193FF81916F01853229F4B70105
:1005B00090E00E949904E7CF512C312C20E02032AA
:1005C000A0F48B3269F030F4803259F0833269F450
:1005D00020612CC08D3239F0803339F4216026C07F
:1005E0002260246023C0286021C027FD27C030ED91
:1005F000380F3A3078F426FF06C0FAE05F9E300DDF
:100600001124532E13C08AE0389E300D1124332E4E
:1006100020620CC08E3221F426FD6BC1206406C01E
:100620008C3611F4206802C0883641F4F60193FD3F
:10063000859193FF81916F018111C1CF982F9F7D8B
:100640009554933028F40C5F1F4FFFE3F9830DC0DE
:10065000833631F0833771F0833509F05BC022C0F7
:10066000F801808189830E5F1F4F44244394512CED
:10067000540115C03801F2E06F0E711CF801A08022
:10068000B18026FF03C0652D70E002C06FEF7FEFE1
:10069000C5012C870E948E042C0183012C852F77A5
:1006A000222E17C03801F2E06F0E711CF801A080F5
:1006B000B18026FF03C0652D70E002C06FEF7FEFB1
:1006C000C5012C870E9483042C012C852068222ED2
:1006D000830123FC1BC0832D90E048165906B0F41B
:1006E000B70180E290E00E9499043A94F4CFF501BA
:1006F00027FC859127FE81915F01B70190E00E9460
:10070000990431103A94F1E04F1A51084114510400
:1007100071F7E5C0843611F0893639F5F80127FF05
:1007200007C060817181828193810C5F1F4F08C077
:1007300060817181882777FD8095982F0E5F1F4F0C
:100740002F76B22E97FF09C0909580957095619590
:100750007F4F8F4F9F4F2068B22E2AE030E0A401D8
:100760000E94CB04A82EA81844C0853729F42F7EF8
:10077000B22E2AE030E025C0F22FF97FBF2E8F364F
:10078000C1F018F4883579F0B4C0803719F0883793
:1007900021F0AFC02F2F2061B22EB4FE0DC08B2DE3
:1007A0008460B82E09C024FF0AC09F2F9660B92E1E
:1007B00006C028E030E005C020E130E002C020E1C2
:1007C00032E0F801B7FE07C06081718182819381B8
:1007D0000C5F1F4F06C06081718180E090E00E5F6A
:1007E0001F4FA4010E94CB04A82EA818FB2DFF7751
:1007F000BF2EB6FE0BC02B2D2E7FA51450F4B4FED9
:100800000AC0B2FC08C02B2D2E7E05C07A2C2B2DE1
:1008100003C07A2C01C0752C24FF0DC0FE01EA0D27
:10082000F11D8081803311F4297E09C022FF06C0AA
:100830007394739404C0822F867809F0739423FD17
:1008400013C020FF06C05A2C731418F4530C571809
:10085000732C731468F4B70180E290E02C870E9437
:10086000990473942C85F5CF731410F4371801C0D4
:10087000312C24FF12C0B70180E390E02C870E9446
:1008800099042C8522FF17C021FF03C088E590E062
:1008900002C088E790E0B7010CC0822F867859F03B
:1008A00021FD02C080E201C08BE227FD8DE2B7018D
:1008B00090E00E949904A51438F4B70180E390E019
:1008C0000E9499045A94F7CFAA94F401EA0DF11DFD
:1008D0008081B70190E00E949904A110F5CF3320E8
:1008E00009F451CEB70180E290E00E9499043A9455
:1008F000F6CFF7018681978102C08FEF9FEF2C968C
:10090000E2E10C944505FC01059061507040011036
:10091000D8F7809590958E0F9F1F0895FC01615028
:10092000704001900110D8F7809590958E0F9F1F11
:1009300008950F931F93CF93DF93182F092FEB0187
:100940008B8181FD03C08FEF9FEF20C082FF10C01D
:100950004E815F812C813D81421753077CF4E881F1
:10096000F9819F012F5F3F4F39832883108306C091
:10097000E885F985812F0995892B29F72E813F81FB
:100980002F5F3F4F3F832E83812F902FDF91CF9199
:100990001F910F910895FA01AA27283051F12031B3
:1009A00081F1E8946F936E7F6E5F7F4F8F4F9F4F03
:1009B000AF4FB1E03ED0B4E03CD0670F781F891F45
:1009C0009A1FA11D680F791F8A1F911DA11D6A0F13
:1009D000711D811D911DA11D20D009F468943F91C6
:1009E0002AE0269F11243019305D3193DEF6CF01C5
:1009F0000895462F4770405D4193B3E00FD0C9F78B
:100A0000F6CF462F4F70405D4A3318F0495D31FDF7
:100A10004052419302D0A9F7EACFB4E0A69597954A
:100A2000879577956795BA95C9F700976105710520
:100A300008959B01AC010A2E06945795479537956A
:100A40002795BA95C9F7620F731F841F951FA01DC4
:100A500008952F923F924F925F926F927F928F9262
:100A60009F92AF92BF92CF92DF92EF92FF920F933D
:100A70001F93CF93DF93CDB7DEB7CA1BDB0B0FB647
:100A8000F894DEBF0FBECDBF09942A883988488804
:100A90005F846E847D848C849B84AA84B984C8849A
:100AA000DF80EE80FD800C811B81AA81B981CE0F91
:100AB000D11D0FB6F894DEBF0FBECDBFED01089576
:040AC000F894FFCFD8
:080AC400253032580D0A000034
:00000001FF
